:1000000019C001C132C031C030C02FC02EC02DC0B8
:100010002CC02BC02AC029C028C0E0C126C025C0E2
:1000200024C023C022C021C020C01FC01EC01DC0CC
:100030001CC01BC011241FBECFEFD4E0DEBFCDBF5C
:1000400012E0A0E0B1E0E4E8F6E102C005900D9214
:10005000A232B107D9F713E0A2E2B2E001C01D92CB
:10006000A13DB107E1F798D70BCBCACF3F924F9292
:100070005F926F927F928F929F92AF92BF92CF9238
:10008000DF92EF92FF920F931F93CF93DF932C0198
:10009000362E69017A0189019A01F7FE07C000270F
:1000A000112798010C191D092E093F09D1E09AE08A
:1000B000892E912CA12CB12C08C0C901B801A50131
:1000C00094016DDA89019A01DF5F0A30110521057B
:1000D00031059CF7F7FCDF5F832D90E09C012D0F2D
:1000E000311D213231050CF058C05201A80EB91E45
:1000F000F7FE0AC0F094E094D094C094C11CD11CC7
:10010000E11CF11CCFEF01C0C0E0450100E08AE036
:10011000482E512C612C712C01C0082FC701B6014B
:10012000A30192013CDA605DF40161934F01802FDD
:100130008F5F69017A011C141D041E041F046CF3F7
:10014000CF3F51F4E82FFF27E7FDF095EA0DFB1DA7
:100150008DE28083802F8E5FE82FFF27E7FDF095EB
:10016000EA0DFB1D10828150582F569540E0282F34
:1001700030E0842F90E0F501E80FF91F6081D9018C
:10018000A81BB90BAA0DBB1D8C9180836C934F5F8C
:10019000541778F78D2F830D01C081E2DF91CF9145
:1001A0001F910F91FF90EF90DF90CF90BF90AF9095
:1001B0009F908F907F906F905F904F903F900895A9
:1001C0001F93CF93DF93FC01162FEA0109900020C3
:1001D000E9F7CE010197C82FC41B262F30E0C901D3
:1001E0008C0F911D813291050CF0C1E2CF01820F7D
:1001F000931FBA014C2F50E024DA8C2F810FDF912E
:10020000CF911F9108951F920F920FB60F92112454
:100210002F933F934F935F936F937F938F939F930E
:10022000EF93FF93109285001092840088E28A95E4
:10023000F1F78091CC039091CD034A99B9C0009712
:1002400009F457C08091CE03813009F052C020914B
:100250002702E8E1EA95F1F78091CF0390E0BC0135
:1002600055E0660F771F5A95E1F7680F791F80E018
:1002700090E030E0A901E5E0440F551FEA95E1F771
:10028000420F531F445D5D4F68547D4FFA01E80FE4
:10029000F91F2081203221F0222311F0219A02C07F
:1002A00021980000FB01E80FF91F20812EBD0000FE
:1002B000000000000000000000000000000000003E
:1002C000000000000000000000000000000000002E
:1002D00001968132910509F0D9CF0000000000009D
:1002E00000000000000000000000000000001EBC34
:1002F00021981092CE038091CC039091CD0301966A
:100300009093CD038093CC038E36910511F421E0B8
:1003100004C08F36910519F422E020932202409107
:10032000280250912902209115013091160184175D
:10033000950778F08217930760F491E09093CE03CD
:10034000841B8093CF03909117019230C1F586955D
:100350002CC08217930799F582E080932202809146
:10036000270290E001968170907080932702FC0133
:10037000EE0FFF1FE45FFE4F208131813093290291
:1003800020932802885E9E4FFC0180818093170194
:1003900090E043E0880F991F4A95E1F7820F931F81
:1003A000909316018093150181E08093CF0307C0DD
:1003B000893C910520F01092CD031092CC03FF915F
:1003C000EF919F918F917F916F915F914F913F91AD
:1003D0002F910F900FBE0F901F9018951F920F92A4
:1003E0000FB60F9211242F933F938F939F932091D9
:1003F000D00330E08091CC039091CD0328173907CA
:1004000021F48BB190E489278BB98091CC03809340
:10041000D0039F918F913F912F910F900FBE0F901E
:100420001F901895CF92DF92EF92FF920F931F9338
:100430006B017C0120E030E040E05FE4CAD287FD40
:100440000FC0C701B60120E030E040E05FE493D187
:10045000ECD28B019C01005010402040304805C078
:10046000C701B601E2D28B019C01B801C9011F91FD
:100470000F91FF90EF90DF90CF900895A0E0B0E053
:10048000E3E4F2E0A9C8EC014B01FA018881823073
:1004900008F43EC1DB019C91923008F436C18430EF
:1004A00059F4943009F034C1998111968C911197C7
:1004B000981709F027C12CC1943009F426C1923055
:1004C000A9F4823009F024C1CE0128E0DC010D90AE
:1004D000CD01DA010D92AD012150C1F7D401119681
:1004E0008C91119799818923818311C1823009F4FC
:1004F0000CC1AA80BB80DB0112964D915C911397D1
:10050000CC80DD80EE80FF8014960D911D912D91A1
:100510003C911797C501841B950BDC0197FF04C024
:10052000AA27BB27A81BB90BA032B1050CF067C0E6
:100530001816190684F5280139010A2E04C076948C
:100540006794579447940A94D2F741E050E060E0F2
:1005500070E004C0440F551F661F771FAA95D2F79D
:100560004150504060407040402351236223732328
:1005700081E090E0A0E0B0E0411551056105710512
:1005800019F480E090E0DC018C019D01042915291B
:10059000262937293FC00097E9F1AA0EBB1E260184
:1005A00037010A2E04C076946794579447940A94AE
:1005B000D2F741E050E060E070E004C0440F551F06
:1005C000661F771FAA95D2F7415050406040704097
:1005D0004C215D216E217F2181E090E0A0E0B0E020
:1005E000411551056105710519F480E090E0DC01C9
:1005F0006C017D01C428D528E628F7280BC04A15D0
:100600005B0524F400E010E0980104C05A01CC24FA
:10061000DD2476018981D40111969C911197891767
:1006200009F445C0882329F00C191D092E093F093A
:1006300008C0D701C601801B910BA20BB30B8C0124
:100640009D0137FD04C01182B382A2820BC081E0FC
:100650008183B382A28230952095109501951F4F1A
:100660002F4F3F4F04831583268337830DC0880F98
:10067000991FAA1FBB1F84839583A683B78382819A
:10068000938101979383828384819581A681B78129
:10069000AC01BD0141505040604070404F3F2FEFD2
:1006A00052072FEF62072FE3720708F30BC0818315
:1006B000B382A2820C0D1D1D2E1D3F1D04831583C8
:1006C0002683378383E080834481558166817781E7
:1006D00077FF1DC0DB01CA0181709070A070B070FF
:1006E0007695679557954795842B952BA62BB72B19
:1006F00084839583A683B7838281938101969383B4
:10070000828305C0CAE1D1E003C0E40101C0EF016A
:10071000CE01CDB7DEB7E0E17BC7A0E2B0E0E2E911
:10072000F3E068C7DC01CB018D839E83AF83B8877C
:1007300029833A834B835C83CE010596BE01675EB5
:100740007F4F64D3CE010196BE016F5E7F4F5ED3B3
:10075000CE014996BE016F5E7F4FAE01475F5F4F8E
:100760008DDE7DD2462F572F682F792FCB01BA010E
:10077000A096E2E05BC7A0E2B0E0E0ECF3E03AC7AD
:10078000DC01CB018D839E83AF83B88729833A83B5
:100790004B835C83CE010596BE01675E7F4F36D3E7
:1007A000CE010196BE016F5E7F4F30D38A8991E002
:1007B00089278A8BCE014996BE016F5E7F4FAE01BD
:1007C000475F5F4F5BDE4BD2462F572F682F792F45
:1007D000CB01BA01A096E2E029C7A0E2B0E0E2EFC7
:1007E000F3E0FAC6DC01CB018D839E83AF83B8872B
:1007F00029833A834B835C83CE010596BE01675EF5
:100800007F4F04D3CE010196BE016F5E7F4FFED2B3
:10081000998D923078F089898230C0F0943019F443
:10082000823041F4CAC0843019F4923079F4C5C0E2
:10083000923051F481E02A8D9A89291709F480E0D9
:100840008A8FCE014996BBC0823051F481E02A8D57
:100850009A89291709F480E08A8BCE014196AFC0AE
:100860004D8C5E8C6F8C78A00D891E892F89388DF8
:10087000E0E2F0E040E050E0BA018824992454011D
:10088000CC24DD247601C201817090700097D1F0F4
:10089000C00ED11EE21EF31EDB01CA01880D991D98
:1008A000AA1DBB1D41E050E060E070E0C016D1061B
:1008B000E206F30618F040E050E0BA01480F591F75
:1008C0006A1F7B1F880C991CAA1CBB1C37FF08C021
:1008D00081E090E0A0E0B0E0882A992AAA2ABB2A09
:1008E000000F111F221F331F76946794579447946B
:1008F000319749F68B8D9C8D2B893C89820F931FF4
:1009000002969C878B8781E02A8D9A89291709F4A2
:1009100080E08A872B853C8517C0CA018170907062
:10092000009761F0F694E794D794C79480E090E044
:10093000A0E0B0E8C82AD92AEA2AFB2A769567956A
:10094000579547952F5F3F4F77FDE7CFC9010BC004
:10095000440F551F661F771FF7FC4160CC0CDD1C50
:10096000EE1CFF1C01974030A0E05A07A0E06A0788
:10097000A0E47A0768F38B879C87DB01CA018F7735
:100980009070A070B07080349105A105B10561F43C
:1009900047FD0AC0C114D104E104F10429F0405C10
:1009A0005F4F6F4F7F4F40784D875E876F87788BA3
:1009B00083E08987CE01099602C08AE191E04FD198
:1009C000462F572F682F792FCB01BA01A096E0E16F
:1009D0001FC6A8E1B0E0EEEEF4E00CC6DC01CB01EE
:1009E0008D839E83AF83B88729833A834B835C834F
:1009F000CE010596BE016F5E7F4F08D2CE010196F3
:100A0000BE01675F7F4F02D28989823050F08985AD
:100A1000823038F0CE014196BE01675F7F4F5FD2D2
:100A200001C08FEF6896E2E001C6ACE0B0E0EAE119
:100A3000F5E0DEC5DC01CB0189839A83AB83BC83FF
:100A4000CE010196BE016B5F7F4FE0D18D81823078
:100A500069F1823058F1843039F02F81388537FDC3
:100A600025C02F31310544F08E81882319F100E033
:100A700010E020E030E822C08EE190E0821B930B72
:100A800009851A852B853C8504C0369527951795D1
:100A900007958A95D2F78E81882381F0309520952D
:100AA000109501951F4F2F4F3F4F08C000E010E0F9
:100AB000980104C00FEF1FEF2FEF3FE7B801C90106
:100AC0002C96E4E0B1C5A8E0B0E0E8E6F5E08CC51E
:100AD0006B017C011A82611571058105910519F47C
:100AE00082E089835DC083E089830EE110E01C838E
:100AF0000B83CD82DE82EF82F886C701B6015CD01F
:100B00009C012150304037FF38C0EE27FF27E21B01
:100B1000F30B81E090E0A0E0B0E00E2E04C0880F5F
:100B2000991FAA1FBB1F0A94D2F70197A109B10907
:100B30008C219D21AE21BF2141E050E060E070E0BA
:100B40000097A105B10519F440E050E0BA0104C0D6
:100B5000F694E794D794C794EA95D2F7C42AD52A95
:100B6000E62AF72ACD82DE82EF82F8868EE190E0D7
:100B7000821B930B9C838B8313C02115310581F05D
:100B8000022E04C0CC0CDD1CEE1CFF1C0A94D2F714
:100B9000CD82DE82EF82F886021B130B1C830B834F
:100BA000CE0101965CD0462F572F682F792FCB01AD
:100BB000BA012896E8E034C5CF92DF92EF92FF9217
:100BC0000F931F938B019C01003080E0180781E098
:100BD000280780E0380750F40F3F11052105310543
:100BE00009F088F480E090E0DC0116C00030E0E01D
:100BF0001E07E0E02E07E1E03E0750F480E190E0C0
:100C0000A0E0B0E009C088E090E0A0E0B0E004C05F
:100C100088E190E0A0E0B0E040E250E060E070E009
:100C2000481B590B6A0B7B0B6801790104C0F694D1
:100C3000E794D794C7948A95D2F7D701C6018E5D01
:100C40009E4FFC018081481B510961097109CA014D
:100C50001F910F91FF90EF90DF90CF900895CF926A
:100C6000DF92EF92FF920F931F93DC0114964D9148
:100C70005D916D917C9117971196EC9111978C91E4
:100C8000823020F460618FEF90E0A5C0843009F4D9
:100C90009DC0823009F494C041155105610571056C
:100CA00009F491C012968D919C9113972FEF823881
:100CB00092070CF059C022E83FEF281B390B2A316C
:100CC000310564F56A017B01022E04C0F694E794B5
:100CD000D794C7940A94D2F781E090E0A0E0B0E006
:100CE00004C0880F991FAA1FBB1F2A95D2F701972E
:100CF000A109B10984239523A623B72341E050E03D
:100D000060E070E00097A105B10519F440E050E003
:100D1000BA014C295D296E297F2903C040E050E0CB
:100D2000BA01DB01CA018F779070A070B070803477
:100D30009105A105B10539F447FF09C0405C5F4F3B
:100D40006F4F7F4F04C0415C5F4F6F4F7F4F81E01B
:100D500090E0403020E0520720E0620720E4720774
:100D600038F580E090E024C0803891057CF58A0158
:100D70009B010F7710702070307000341105210531
:100D8000310539F447FF09C0405C5F4F6F4F7F4F1B
:100D900004C0415C5F4F6F4F7F4F77FD03C08158A8
:100DA0009F4F06C0769567955795479580589F4FFA
:100DB00097E076956795579547959A95D1F70BC02B
:100DC00080E090E005C080E090E005C08FEF90E00B
:100DD00040E050E0BA01982F979599279795A62F54
:100DE000AF77E795EE27E79586953A2F392B282F91
:100DF0002E2B842F952FA32FB22FBC01CD011F9135
:100E00000F91FF90EF90DF90CF900895DC01FB01F0
:100E10004C9111965C91119712968C911297682FB4
:100E20006F7770E0982F991F9927991F13962C912F
:100E30001397822F880F892B90E0221F2227221FD1
:100E40002183009739F5411551056105710511F4AC
:100E500082E029C082E89FEF9383828327E0440FDA
:100E6000551F661F771F2A95D1F783E0808309C03D
:100E7000440F551F661F771F8281938101979383CB
:100E80008283403080E0580780E0680780E478077C
:100E900078F320C08F3F910579F441155105610524
:100EA000710519F484E08083089564FF03C081E034
:100EB000808310C010820EC08F579040938382832E
:100EC00083E0808387E0440F551F661F771F8A9554
:100ED000D1F7706444835583668377830895CF93F5
:100EE000FC01DB019081923008F44CC08C9182307F
:100EF00008F448C0943069F42181843039F41196A3
:100F00008C91119790E0821B910944C02223D1F16A
:100F10003FC0843021F0923041F48230B1F111961B
:100F20008C9111978823A1F12DC0C181823001F1EC
:100F300011968C911197C817D9F4828193811296DA
:100F40002D913C9113972817390794F08217930736
:100F5000BCF0448155816681778114968D919D9175
:100F60000D90BC91A02D84179507A607B70718F41C
:100F7000CC2341F00DC0481759076A077B0728F4B6
:100F8000CC2331F081E090E005C080E090E002C029
:100F90008FEF9FEFCF910895CF93DF93CDB7DEB75B
:100FA0002B970FB6F894DEBF0FBECDBF80E28BB992
:100FB00080E48AB929988CE084B980916F008160BF
:100FC00080936F008091810082608093810083E034
:100FD0008093690081E08DBB80E880BF10927B0028
:100FE0001EBC8DB58E7F8DBD84E58CBDE091270242
:100FF000F0E0EE0FFF1FE45FFE4F80819181909340
:1010000029028093280210927E0080917C008064E7
:1010100080937C0080917A00866080937A001092A1
:101020007B0078944D990BC081E080932A028091D7
:101030002B02833360F010922B025E9A08C08091DD
:101040002A0281115E9810922A0210922B0280913E
:101050002202823009F084C010922202809127027D
:10106000AEE6AA2EA2E0BA2ED50120E030E060E084
:1010700070E090E0AC0115E0440F551F1A95E1F7C0
:10108000480F591F445D5D4FFA01E60FF71F80813D
:101090008032E1F08823D1F08B3550F4282F30E0F6
:1010A000F3E0220F331FFA95E1F72852314010C0C8
:1010B000982F9556993060F4282F30E0E3E0220F06
:1010C000331FEA95E1F72057314002C02FEF3FEF81
:1010D0002D933D936F5F7F4F61327105A9F600E05C
:1010E00010E048E0E42ECC24CA94D5018D909D9068
:1010F0005D0180911001992787FD909588159905CC
:1011000069F0BFEF8B16BFEF9B0681F080EB92E09A
:10111000B40148E050E0A4D280921001A0EBB2E00C
:1011200020E030E0C80188549D4F09C0E0EBF2E0B8
:10113000DE2C1192DA94E9F7C0921001EFCF4D91B5
:10114000FC01E20FF31F40832F5D3F4F41E0283049
:101150003407A9F70F5F1F4F0132110531F662CF37
:1011600080912202813009F05DCF1092220280919D
:101170002A02882329F080912B028F5F80932B0213
:10118000809126028F7009F0E7C05E9A91E1292EC6
:1011900091E0392E83E191E09A83898323ECA22E9A
:1011A00023E0B22EA8ECB3E0BC83AB8380E03AE04E
:1011B000432E512C612C712C8B8780917C00807F79
:1011C00080937C0080917C00CB848C2980937C0070
:1011D00080917A00806A80937A0080917A0080649E
:1011E00080937A009B8580917A0084FFFCCF9B8757
:1011F00080917A00806180937A0080917A008F7567
:1012000080937A002091780030917900B90180E0D4
:1012100090E0AB81BC812D933D93BC83AB83BB85B8
:10122000B13059F426E331E040E050E063D1A3014E
:10123000920193D1B901CA010DC045DC22E538EB1A
:1012400046EA50E4CADA462F572F682F792FCB0190
:10125000BA01E8D8F10121911F0130E040E050E0EF
:1012600049D1A981BA812D91BA83A98330E040E0A8
:1012700050E073D189019A01680179016AE0F6941E
:10128000E794D794C7946A95D1F7CF82D886E98638
:10129000FA864501089481089108CC0CCC0CCE82CA
:1012A0001D82ED80FE80C701A0E0B0E068017901F9
:1012B000C81AD90AEA0AFB0AC701B60124E630E0D7
:1012C00040E050E017D1DC01CB01EAE0B695A795EC
:1012D00097958795EA95D1F7F4018083EF81D50141
:1012E000EC93FB85FF5FFB8782E0C82ED12CAC0C12
:1012F000BD1CF23009F061CF8091C4039091C50309
:101300009093C1038093C0036091C30384E6689FF8
:10131000B00111248091C203680F711D21E0673074
:10132000720780F46115710579F024E630E0629F60
:10133000C001639F900D729F900D112466E071E0D3
:10134000F8D002C064E670E06093C60381E06832C2
:1013500008F080E08093C703809126028F5F80931E
:10136000260280912602823378F010922602809124
:1013700024028F5F809324028091230290E00196E3
:101380008170907080932302809124028C3338F016
:1013900010922402809125028F5F80932502809114
:1013A00025028C3310F0109225020CE212E080E04E
:1013B0002EE2A22E30E3432E882E99C0F801E80FCA
:1013C000F91F1082019681329105C1F7882099F4A6
:1013D0008CE292E064E040E051E0F2D68CE292E0F0
:1013E0006FE042E051E0ECD68CE292E06BE144E049
:1013F00051E0E6D675C0C090C403DD24EE24FF247E
:101400002091C50330E040E050E08DE492E064E0DC
:101410002DD6E82FF0E0E45DFD4FA1A2682F6F5FAD
:101420004AE0C416D104E104F10434F4E62FF0E0FC
:10143000E45DFD4F41A26F5F8DE492E0A70196014C
:1014400015D6682F8DE492E046E051E0B9D6809140
:10145000C703882321F0809123028823B9F02091CB
:10146000C6032A3020F0243620F06DE003C06FE080
:1014700001C06EE030E040E050E08DE492E0F6D54F
:10148000682F8DE492E048E051E09AD680912502E1
:101490008A3020F44092640268E101C067E1209143
:1014A000250230E040E050E08DE492E0DFD5682F87
:1014B0008DE492E04AE051E083D6682F80912402C7
:1014C0008A3030F4E62FF0E0E45DFD4F41A26F5F1B
:1014D0002091240230E040E050E08DE492E0C6D557
:1014E00083940F5D1F4F52E0851609F49BCD80E079
:1014F00090E064CF629FD001739FF001829FE00D66
:10150000F11D649FE00DF11D929FF00D839FF00D82
:10151000749FF00D659FF00D9927729FB00DE11D2E
:10152000F91F639FB00DE11DF91FBD01CF0111240B
:101530000895AA1BBB1B51E107C0AA1FBB1FA6171A
:10154000B70710F0A61BB70B881F991F5A95A9F76C
:1015500080959095BC01CD010895A1E21A2EAA1B99
:10156000BB1BFD010DC0AA1FBB1FEE1FFF1FA21753
:10157000B307E407F50720F0A21BB30BE40BF50B50
:10158000661F771F881F991F1A9469F760957095D9
:10159000809590959B01AC01BD01CF01089597FB0B
:1015A000092E05260ED057FD04D0D7DF0AD0001C27
:1015B00038F450954095309521953F4F4F4F5F4FF0
:1015C0000895F6F790958095709561957F4F8F4FB0
:1015D0009F4F08952F923F924F925F926F927F920A
:1015E0008F929F92AF92BF92CF92DF92EF92FF9233
:1015F0000F931F93CF93DF93CDB7DEB7CA1BDB0BDF
:101600000FB6F894DEBF0FBECDBF09942A88398883
:1016100048885F846E847D848C849B84AA84B9848A
:10162000C884DF80EE80FD800C811B81AA81B98196
:10163000CE0FD11D0FB6F894DEBF0FBECDBFED01AA
:101640000895FB01DC014150504048F001900D929B
:101650000020C9F701C01D9241505040E0F70895A5
:10166000DC01CB01FC01F999FECF06C0F2BDE1BD62
:10167000F89A319600B40D9241505040B8F7089551
:04168000F894FFCF0C
:101684006A0065006D00560025003A000A01180141
:10169400FF0101010102000201020000000000003C
:1016A400000000010202030303030404040404040D
:1016B40004040505050505050505050505050505D8
:1016C40005050606060606060606060606060606B8
:1016D40006060606060606060606060606060606A6
:1016E4000606070707070707070707070707070788
:1016F4000707070707070707070707070707070776
:101704000707070707070707070707070707070765
:101714000707070707070707070707070707070755
:101724000707080808080808080808080808080837
:101734000808080808080808080808080808080825
:101744000808080808080808080808080808080815
:101754000808080808080808080808080808080805
:1017640008080808080808080808080808080808F5
:1017740008080808080808080808080808080808E5
:1017840008080808080808080808080808080808D5
:1017940008080808080808080808080808080808C5
:0217A400080833
:00000001FF
